:020000040000FA
:1000000070080020550100008D0100008F010000E4
:10001000391A0000890B00000000000000000000F9
:100020000000000000000000000000009F01000030
:100030000000000000000000A1010000A30100007A
:10004000A5010000A5010000A5010000A501000018
:10005000A5010000A5010000A5010000A501000008
:10006000A5010000A5010000A5010000A5010000F8
:10007000A5010000A5010000A5010000A5010000E8
:10008000A90A0000A5010000A5010000A5010000CB
:10009000A5010000A5010000A5010000A5010000C8
:1000A000A5010000A5010000A5010000A5010000B8
:1000B000A5010000A5010000A5010000A5010000A8
:1000C000A5010000A5010000A5010000A501000098
:1000D000A5010000A5010000A5010000A501000088
:1000E000A5010000A5010000A5010000A501000078
:1000F000A5010000A5010000A5010000A501000068
:10010000A5010000A5010000A5010000A501000057
:10011000A5010000A5010000A5010000A501000047
:10012000A5010000A5010000A5010000A501000037
:10013000A5010000A5010000A5010000A501000027
:100140000348854600F01AFB00480047D91B000011
:1001500070080020184840F25901016040F2160171
:10016000016040F28801016014488047144801682A
:10017000802291430160134A45F6A5211160124A7D
:1001800011600D480021016010480047FEE77046ED
:10019000EFF30881EFF309820D4B98470047FEE724
:1001A000FEE7FEE7FEE70000ABBE0A4B08B5984746
:1001B00008BD7046F047000000010040AD1A000085
:1001C0008001004024000040EC010040410100009B
:1001D000F11300007D160000F0B51FB488B00B9934
:1001E0000998002448400999C00F4900490809911D
:1001F000C0070B990090490049080B91099908988C
:10020000A64608431CD00B990A98084318D00998B1
:1002100001244000420D4800410D099824050003C7
:10022000000B204309900B980003000B20430B9018
:1002300050181C494018002201901446104605E051
:10024000002001460DB0F0BD032801DA034600E0AE
:1002500003239C46C11A0AAE0AE05F0008ADED5BBD
:100260004F00F75B7D430027AA187C41491C5B1EA9
:100270006145F2DD410004AB5A522104120C0A43DD
:10028000240C401C0828DFDB01980290009970467E
:1002900001910090059B049A0799069800F0BDF81B
:1002A000D0E700000DFCFFFFC217C10F504010B592
:1002B0004018CA079623002100F069F810BDC20F4C
:1002C000D207400040080BD0C10D0723DB01C9183D
:1002D00040020905400A1143C20840071143704714
:1002E000002001467047CB0FDB07490010B54908D5
:1002F00002460A4307D00A0D07240903E401090B4B
:10030000121B002A01DC002010BDC900440F0C4361
:10031000C100E018D205801800F031F810BDF0B52A
:100320001FB40646002082B005464024019100908B
:100330001BE0019922460F46304600F066FA049A07
:10034000059B801A994110D310461946224600F0A9
:100350004CFA361A8F410197224601200021009F56
:1003600000F043FA38184D4100902046641E0028E2
:10037000DFDC019B00982946324607B0F0BD00291A
:1003800004DA401C490001D140084000704770B4B5
:100390000024050C05D11024000402D1002921D02D
:1003A0001124050E01D100020834050F01D100010E
:1003B000241D850F01D18000A41C002801DB400012
:1003C000641C002908D020252E1B0D46F540A140B5
:1003D00000D001212943084301061B1B000ADB1D35
:1003E00002D5002070BC7047DB0518188018002962
:1003F000F8DA401C4900F5D170BC40084000704755
:1004000010B5002B08DA0024401C614192185B41B2
:100410001A4301D14008400010BDF0B51FB482B0AE
:1004200005460C0003D0084601F03EFC02E001F056
:100430003BFC2030024600902146284600F0D5F9CA
:10044000049B059A04460F4618431143084314D0F1
:10045000184610431BD0009840210A1A18460599E7
:1004600000F0D3F905460E46009A0599049800F06D
:10047000BCF9084305D0012004E02046394607B006
:10048000F0BD0020C11705430E432C4337430099AC
:100490000E986305401A7905E40A00220C43FD0A10
:1004A0000A3002D500200146E9E70105101969412B
:1004B0000C9C0D9D00196941FFF7A2FFDFE70000CA
:1004C000F0B507460846584087B0C00F0490480072
:1004D0000E46590040084908BC1A884105D23846E2
:1004E00031461E4617460B46024658004008104348
:1004F0004CD0300D039040055900400D490D05903A
:10050000401A0290402872DA18030121000B0905F5
:100510000843019004980092002805D001995242A6
:100520000020884100920190029840210A1A019906
:10053000009800F05AF905460C466B4607CB00F0D0
:1005400075F9C0197141039A0E0D0023D717564053
:100550001A467A40164344D0049A002A2DD0029AB3
:10056000012A039A15DC1205C01A914101263605AD
:10057000001C7141D20F059ED20700930192029692
:100580002A462346FFF749FF07B0F0BD38463146FB
:10059000FAE71605224A0F46B218C01AB7410121E0
:1005A0000905001C4F4100187F4111461818794178
:1005B000E20F10436D19644113E0E2076D08154323
:1005C0006408C2071443039A01261205C01A914118
:1005D0003605001C7141CE07400830434908C01859
:1005E00051412A462346FFF70BFFCDE7FFE704986A
:1005F00001224000C117121A00238B410498314692
:10060000C417381AA141EEE730B40124E40763406F
:1006100030BC55E730B40124E407614030BC4FE7FB
:100620000000E0FFF0B50C465C4085B0E40FE40745
:1006300003944C0000266408590094464908024679
:100640000296224321D062460A431ED06200570D13
:100650004A000E032303550D012402462C492405AC
:10066000781B1B0B360B4018234326436146009032
:100670001C46501AB44103D30098401C009002E07D
:10068000921800985B41002803DA0020014605B06B
:10069000F0BD0020012109050746864611E06446A9
:1006A0001D46141BB54106D36546521BB341744623
:1006B00007430C43A646CD07400849082843921833
:1006C0005B4105460D43EAD11046184313D06046FE
:1006D000194650407140084306D06046101AB34195
:1006E00006D20122002306E000220123DB0702E0FC
:1006F0000122D2435310009874460105381C614111
:10070000029C039D00196941FFF77AFEBFE70000D4
:10071000FD0300004A0009030123090B1B051943CF
:100720000A4B10B5520D9A4202DA0020014610BD64
:10073000064B34339A4203DC9A1A00F066F810BD77
:10074000034BD21800F051F810BD0000FF03000069
:10075000CDFBFFFF10B5002904DB0124E407404274
:100760008C412146002B04DB1C460123DB0752424F
:10077000A341994200D1904210BD00001CB5094828
:1007800000900948019005460126009C05E0E368B9
:1007900007CC33430C3C98471034AC42F7D3FFF7F7
:1007A000D3FC0000182600003826000070B504466F
:1007B000002903D000202022012310E0002801D0CE
:1007C0000020C043C046C0460DE02546D5408D42BE
:1007D00005D30D469540641B1D46954040191546AE
:1007E000521E002DF1DC214670BD10B5202A04DB1D
:1007F0000146203A9140002010BD914020239C1AD0
:100800000346E3401943904010BD10B5202A04DB95
:100810000846203AD040002110BD0B46D340D040BE
:100820002024A21A91400843194610BD10B5202A71
:1008300006DBCB170846203A1041C1170B4306E0F0
:100840000B461341D0402024A21A91400843194678
:1008500010BD00001F21014001228A40800F80004E
:100860000349085803494358134343507047C0464F
:10087000C02500000402004066490A6802430A607D
:100880007047C04680B501F0E7F88548006880BD34
:1008900080B501F0E1F832480168072008400528DA
:1008A00027D8810001A251188F46C04600F00AB82F
:1008B00000F017B800F00DB800F00FB800F005B860
:1008C00000F013B87648006880BD754800680009DC
:1008D00080BD73480068800880BD71480068C0080A
:1008E00080BD6F480068400880BD6D4800684009C1
:1008F00080BD002080BDC04680B501F0ADF818482D
:1009000000684006400F052827D8810001A2511831
:100910008F46C04600F00AB800F017B800F00DB8D6
:1009200000F00FB800F005B800F013B85C4800689C
:1009300080BD5B480068000980BD59480068800898
:1009400080BD57480068C00880BD55480068400811
:1009500080BD53480068400980BD002080BDC0466E
:10096000340200401148016805200004014201D012
:10097000002070470320C0040A460240824203D090
:100980000C488A0303D510E009488A030DD43F229E
:100990000A40800850430A04920F074B9A5CC9042E
:1009A000090F5143B0FBF1F0800070474002004056
:1009B00000863D00001BB700F4250000F0B581B0B3
:1009C000144C276D226804252A432260334A0023F1
:1009D000136010263E40324F3F68226DD20604D489
:1009E0007F1EFAD1DA432D4B1A60226907231A437E
:1009F0002261226A0F27BA430A432262216999437E
:100A00000143216101F028F816B92068A84320604D
:100A100001B0F0BD0002004070B5830ADCB20F4B9C
:100A200064B18505ED0EAC40050C0C262E400CA5DE
:100A3000AD595D192E69A64316432E610201520F6E
:100A40000BD0C401E40EA240800E0C2404400848E0
:100A50000059C45894430C43C45070BD1002004068
:100A600000000000040000000C0000001000000066
:100A7000E425000070B50146084A00201060084BCC
:100A80001B68084D01242E680E4204D15B1EFAD16A
:100A9000C143116070BD204670BDC0466400002097
:100AA0000800002050020040B0B518480168C9068F
:100AB00000D4B0BD102101600024204600F09CFE4F
:100AC0000146000202D5FF2000060918104D2960DA
:100AD00010A001F0D9F82868FFF7E6FBFFF7EFFB5D
:100AE0007D22D3052246FFF777FB0D4A0D4BFFF71A
:100AF00073FBFFF7F8FBFFF7E2FB02460AA00B4689
:100B0000B0BC02BC8E4601F0BFB8C04620400040D9
:100B100068000020414443203D2025642C20000033
:100B20003333333333330340566F6C74203D202509
:100B30002E356620560A000010B5130E8B408469CE
:100B40001C438461FF231B069A438A40C1691143F9
:100B5000C16110BDF0B581B00092002303221D4693
:100B600003E09B1C6D1C102D0CD00E46EE40F607CA
:100B7000F7D0009E9E4017469F400468BC43344314
:100B80000460EEE701B0F0BD034881694904FCD47C
:100B90000068C0B27047C04600000740F0B58FB093
:100BA000064D2A460C3A1068012108430C230A938B
:100BB000984310600B914C0402E0C04614100640AC
:100BC00028682042FCD1FC200890E8602868C00713
:100BD000FCD1E86928682042FCD10020E86029683F
:100BE000C907FCD1E96929682142FCD1532104914C
:100BF000E9602968C907FCD1E969116805230D93EB
:100C0000194308230C939943116011680B9B1943F6
:100C10000A9B9943116029682142FCD14021E96077
:100C20002968C907FCD1E96929682142FCD1E8603B
:100C30002968C907FCD1E96929682142FCD1E8602B
:100C40002868C007FCD1E86911680D9B19430C9B0B
:100C500099431160C021059108430EA908700978D5
:100C600000263046099200F015FE099A10680B998B
:100C700008430A998843106028682042FCD1432029
:100C80000690E8602868C007FCD1E869286820421F
:100C9000FCD1EE602868C007FCD1E86928682042D2
:100CA000FCD1EE602868C007FCD1E86911680D9B93
:100CB00019430C9B994311602021079108401A3079
:100CC0000EA9087009780327384600F0E3FD099A59
:100CD00010680B9908430A998843106028682042DD
:100CE000FCD144200390E8602868C007FCD1E86983
:100CF00028682042FCD1EE602868C007FCD1E86972
:100D000028682042FCD1EE602868C007FCD1E86961
:100D100011680D9B19430C9B99431160384020309A
:100D20000EA908700978042000F0B4FD099A106833
:100D30000B9908430A998843106028682042FCD127
:100D40004720E8602868C007FCD1E869286820428D
:100D5000FCD1EE602868C007FCD1E8692868204211
:100D6000FCD1EE602868C007FCD1E86911680D9BD2
:100D700019430C9B9943116038400C300EA9087040
:100D80000978072000F086FD099A10680B9908433E
:100D90000A998843106028682042FCD14820E86006
:100DA0002868C007FCD1E86928682042FCD1EE60C1
:100DB0002868C007FCD1E86928682042FCD1029766
:100DC000EE602868C007FCD1EF6911680D9B1943DC
:100DD0000C988143116008990F407A1C0EA90A7083
:100DE000097800F057FD099A10680B9908430A9991
:100DF0008843106028682042FCD14920E8602868B8
:100E0000C007FCD1E86928682042FCD1EE60286860
:100E1000C007FCD1E86928682042FCD1EE60286850
:100E2000C007FCD1E86911680D9B19430C9B9943DD
:100E300011600599084015300EA90870097809203D
:100E400000F028FD099A10680B9908430A99884315
:100E5000106028682042FCD14A20E8602868C0075A
:100E6000FCD1E86928682042FCD1EE602868C00700
:100E7000FCD1E86928682042FCD1EE602868C007F0
:100E8000FCD1E86911680D9B19430C9B99431160D3
:100E9000039908430EA9087009780A20039000F00E
:100EA000F9FC099A10680B9908430A998843106065
:100EB00028682042FCD14E20E8602868C007FCD199
:100EC000E86928682042FCD1EE602868C007FCD1A0
:100ED000E86928682042FCD1EE602868C007FCD190
:100EE000E86911680D9B19430C9B994311600699A1
:100EF000084084300EA9087009780E2000F0CAFC62
:100F0000099A10680B9908430A9988431060286869
:100F10002042FCD15020E8602868C007FCD1E86975
:100F200028682042FCD1EE602868C007FCD1E8693F
:100F300028682042FCD1EE602868C007FCD1E8692F
:100F400011680D9B19430C9B994311603E21014090
:100F500081310EA801700178102000F09BFC099AE5
:100F600010680B9908430A9988431060286820424A
:100F7000FCD10498E8602868C007FCD1E8692868BB
:100F80002042FCD1EE602868C007FCD1E8692868DF
:100F90002042FCD1EE602868C007FCD1E8691168E6
:100FA0000D9B19430C9B994311600B9F3840C03037
:100FB0000EA908700978132000F06CFC099A1068DB
:100FC00038430A998843106028682042FCD1552094
:100FD000E8602868C007FCD1E86928682042FCD195
:100FE000EE602868C007FCD1E86928682042FCD17F
:100FF000EE602868C007FCD1E86911680D9B1943B1
:101000000C9B994311600F210140E0310EA8017043
:101010000178152000F03EFC099A10680B990843EE
:101020000A998843106028682042FCD15620E86065
:101030002868C007FCD1E86928682042FCD1EE602E
:101040002868C007FCD1E86928682042FCD1EE601E
:101050002868C007FCD1E86911680D9B19430C9BF7
:101060009943116008990840801C0EA908700978FE
:10107000162000F00FFC099908680B9A10430A9A91
:101080009043086028682042FCD10898E8602868EE
:10109000C007FCD1E86928682042FCD1EE602868CE
:1010A000C007FCD1E86928682042FCD1CA20E8606A
:1010B0002868C007FCD1E86908680D9A10430C9AAB
:1010C00090430860C648C74940F2E83233460F688B
:1010D0005743476086600D9F07600768FF03FCD594
:1010E00006605B1C0A2BF2D1099A10680B99084321
:1010F0000A998843106028682042FCD15120019051
:10110000E8602868C007FCD1E86928682042FCD163
:101110000021E9602868C007FCD1E86928682042FE
:10112000FCD10E46E9602868C007FCD1E869116867
:101130000D9B19430C9B99431160089908430EA914
:1011400008700978112000F0A5FB099A10680B9926
:1011500008430A998843106028682042FCD10C9803
:10116000E86033462868C007FCD1E869099A10682E
:101170000D9908430C99884310609B4E184605E072
:10118000069B0598CB18401C08283CD031680129E3
:10119000FCD0099F39680B9A11430A9A9143396030
:1011A00029682142FCD10799E9602968C907FCD167
:1011B00005900693E9692F46143F39688B4A114020
:1011C0003960396841F60002114339600021089105
:1011D000E9602968C907FCD1E969099802680D9B93
:1011E0001A430C9B9A4302603A68804B1A403A605B
:1011F0003A6840F600031A433A600A02C0D5FF225B
:1012000012068918BCE7099A10680B9908430A99D5
:101210008843106028682042FCD10398E860286861
:10122000C007FCD1E869099A10680D9908430C9928
:1012300088431060D817400F1818C0100690C1B22C
:10124000172000F027FB0698000AC1B2182000F012
:1012500021FB0698000CC1B2192000F01BFB099A73
:1012600010680B9908430A99884310602868204247
:10127000FCD10498E8602868C007FCD1E8692868B8
:101280002042FCD10898E8602868C007FCD1E869D2
:1012900028682042FCD10898E8602868C007FCD183
:1012A000E86911680D9B19430C9B994311607F21DC
:1012B00001400EA801700178132000F0EBFA099AA2
:1012C00010680B9908430A998843106028682042E7
:1012D000FCD10C98E8602868C007FCD1E869106868
:1012E0000D9908430C9988431060089831680129CA
:1012F000FCD011680B9B19430A9B99431160296824
:101300002142FCD10799E9602968C907FCD1E96944
:101310003968364B19403960396841F60003194382
:1013200039600899E9602968C907FCD1E969116841
:101330000D9B19430C9B9943116039682B4B194045
:101340003960396840F6000319433960401C0828A9
:10135000CCD110680B9908430A998843106028681B
:101360002042FCD10398E860029E2868C007FCD1A7
:10137000E86910680D9908430C998843106010685B
:101380000B9908430A998843106028682042FCD1D1
:101390000198E8602868C007FCD1E8692868204205
:1013A000FCD10020E8602968C907FCD1E9692968F7
:1013B0002142FCD1E8602868C007FCD1E8691168C7
:1013C0000D9B19430C9B9943116030400EA9087086
:1013D0000978112000F05EFA00200FB0F0BDC04681
:1013E00010E000E00000002010480040FFE0FFFF98
:1013F00010B5430700D511468A691388064CA342ED
:1014000005D10A4B00241C60921C8A6110BD03A008
:1014100001F0C6F8FEE7C046ABBE000020204861E0
:1014200072644661756C74210A0000000C00002093
:10143000F0B587B0894F3B460C3B18680121084343
:101440000C2204929043186005914C0438682042A5
:10145000FCD1FC200190F8603868C007FCD1F86925
:1014600038682042FCD10020F8603868C007FCD101
:10147000F86938682042FCD153200090F860386841
:10148000C007FCD1F86918680521069108430821B6
:101490000391884318600026059D28463146029333
:1014A00000F0F8F9029B18682843049988431860F3
:1014B00038682042FCD15F20F8603868C007FCD152
:1014C000F86938682042FCD1FE603868C007FCD15A
:1014D000F86938682042FCD1FE603868C007FCD14A
:1014E000F8691968069A1143039A91431960C1B2C9
:1014F000DB2900D0ABE018680599084304998843BC
:10150000186038682042FCD10620F8603868C007AF
:10151000FCD1F86918680699084303998843186054
:1015200005980004534A354640F2E83352490968A9
:101530005943516096600699116011680142FCD0D0
:1015400016606D1C0A2DF1D1029D2968059E31435C
:10155000049EB143296039682142FCD10221F9601F
:101560003968C907FCD1F9692968069E3143039E91
:10157000B143296000252E4640F2E8333E49096810
:101580005943516095600699116011680142FCD081
:101590001560761C0A2EF1D102990868059A10434D
:1015A000049A9043086038682042FCD10198F860A2
:1015B0003868C007FCD1F86938682042FCD10020A7
:1015C000F8603868C007FCD1F86938682042FCD15F
:1015D0000098F8603868C007FCD1F8690868069A76
:1015E0001043039A904308600E460021059D28464B
:1015F000009100F04FF90A20042100F04BF9306807
:10160000284304998843306038682042FCD101980F
:10161000F8603868C007FCD1F869009B3868204240
:10162000FCD1FB603868C007FCD1F86938682042FB
:10163000FCD1CA20F8603868C007FCD1F86902996B
:101640000868069A1043039A9043086003E004A0D8
:1016500000F01AFBFF23184607B0F0BD1410064037
:101660004944204D69736D617463683A2030782570
:10167000580A000010E000E0000000200020704741
:10168000F0B581B01F4615460E460446006E012196
:10169000009188432066FFF7F5F80021A160202F14
:1016A00000D0390296B10E432E43009806432660BF
:1016B00000216160494884421AD0494884427ED161
:1016C0004848016820220A43102116E0069E0D4377
:1016D00000990D432560864220D3C021C943404A6A
:1016E000944212D03D4A944231D1254680220FE0E7
:1016F0003C48016880220A4340218A43026001B0CD
:10170000F0BC01BC8646FFF7F7B825469031202291
:10171000344B1C680C4014431C602C462F498C42EF
:1017200019D02F498C4212D12E490A689206920F85
:1017300022D025460B6830221340102B16D00968A2
:101740001140202920D10446FFF7D6F811E00021EE
:1017500086421DD331E023490A681206920F0BD04E
:1017600025460B68C0221340402B09D10446FFF7E1
:10177000F9F80146204608E01B49864208D31CE0E0
:10178000096811408029DED018492C46864214D2BF
:101790008E4212D21648AEB10A22254613464B435A
:1017A000B3FBF6F35B1DB3FBF2F35C1E6A68844285
:1017B0000DD902436A60490A01E0002060600846D2
:1017C00001B0F0BD626802436260490AF7E7094868
:1017D000024022436A60B1FBF3F1F0E700200640CB
:1017E0000010064018020040001BB700006CDC022D
:1017F000FF01000000FEFFFFF0B5584A11460C390A
:101800000B68012423430C25AB430B60630414686D
:101810001C42FCD17124D4601468E407FCD1D46963
:1018200014681C42FCD10024D4601568ED07FCD17B
:10183000D56915681D42FCD1D0601068C007FCD185
:10184000D06910681842FCD10825D5601068C0071F
:10185000FCD1D0691346143B18680D4E3040186017
:10186000186841F6000707431F60D4601068C0077E
:10187000FCD1D0690A6805241443AC430C60196894
:1018800031401960196840F600020A431A60F0BD41
:10189000FFE0FFFFF0B585B004911F21014008462D
:1018A000603000904031019101235C042B4D2E46A5
:1018B0000C3E0C2003900293306818430399884330
:1018C000306028682042FCD10198E8602868C00791
:1018D000FCD1E86928682042FCD10020E8602A6831
:1018E000D207FCD1EA692A682242FCD1E8602A6862
:1018F000D207FCD1E96937680522174308239F43C3
:101900003760C9B2049F8F4225D03168029F3943A6
:10191000039FB943316029682142FCD10099E960F5
:101920002968C907FCD1E96929682142FCD1E8602E
:101930002868C007FCD1E86928682042FCD10498D7
:10194000E8602868C007FCD1E86930681043984314
:101950003060029BB0E7002005B0F0BD14100640D7
:10196000F0B583B004200290FEF786FF10200190AE
:10197000FFF780F8072000263146FFF71FF81F48C1
:101980000660032529061E4F38463246FFF744F805
:101990001C4C202120463246FFF73EF83846FEF721
:1019A00059FF2046FEF756FF1820FEF753FF0F2180
:1019B0000A041548C36893436A049A18C26009056B
:1019C000C2688A4369055118C16001680F4A0A401C
:1019D000026001680E4A0A4302600E4C2046243819
:1019E00001993246FFF7B6F8206802990843206053
:1019F00003B0F0BC01BC864600F02EB834020040B3
:101A0000103D805F0D004066300000400000FFFF89
:101A100044440000244000400121CA0588498B69E4
:101A20001342FCD1C3B20A2B04D10D230B608B6986
:101A30001342FCD1086070470121CA0580498B69B7
:101A40001342FCD1C3B20A2B04D10D230B608B6966
:101A50001342FCD108607047B0B50E4C2568FEF704
:101A600081FF0D49086007212940022902D0880022
:101A70000A49085821690F220A40511CB0FBF1F0B5
:101A80007C490860064940180649B0FBF1F0064958
:101A90000860B0BD1002004004000020F8250000DE
:101AA00020A1070040420F00000000200548016807
:101AB00040F203120A430C218A43026002480349A0
:101AC000016070474CC0004008ED00E000000000DD
:101AD000F0B589B002910446364803AE31462CC8B1
:101AE0002CC12CC82CC1564884420FD032488442A5
:101AF0001BD03248844210D03148844238D131481A
:101B0000016849004F0FC068000414E02D480168C7
:101B100049014F0FC06800050DE02A488168C0697F
:101B20000F2202404801470F06E02648816849001D
:101B30004F0FC0690006020F002020630325E560F7
:101B4000A06821490140A160042F06D0012F16D1C1
:101B50000192361DFEF706FF0FE00192103642F2A9
:101B6000000020431549884205D1FEF791FE04E0AC
:101B700000221746E0E7FEF7BFFE3060019A029BA5
:101B8000B3B1B80003A90858511CB0FBF1F15808D3
:101B90000818B0FBF3F0801E020C06D0D80008181D
:101BA000B0FBF3F00009801E01E0290708436062E2
:101BB00009B0F0BDCC2500000030074000200740F0
:101BC00000100740140200400FFFF0FF10B504465C
:101BD000FFF722FF204610BD82B018485921162277
:101BE00088230160026003600468002CF9D0FFF7CD
:101BF000B7FEE12041021248FFF76AFF114800904A
:101C000011480021042408232246FFF739FDFFF77D
:101C10000FFCFEF7C3FF0D48012521462A46FEF7BB
:101C20008BFF28040A4908600AA000F0B9FC11489B
:101C3000016811A000F028F8FEE7C046000100404E
:101C400000000740809698000010064000400040C9
:101C500000E100E054686973206578616D706C651F
:101C600020666F72204E4B2D4E4144433234422E3B
:101C7000000000000800002043505520402025644B
:101C800020487A0A0A0000000FB410B503A9044BDB
:101C9000044A029800F0E8F810BC08BC04B01847E9
:101CA000CD1B0000100000202021020C01D01021CB
:101CB0001046020A01D010460839020901D0104628
:101CC000091F820801D01046891E420801D0881ED3
:101CD0007047081A704702E008C8121F08C1002A9E
:101CE000FAD170477047002001E001C1121F002A9D
:101CF000FBD17047F0B51FB486B00998089A030D60
:101D00000021024314D05148514A18185043051479
:101D10001198012810981AD0281A401C00264D4FFF
:101D20004D49009601910490002812DA444211E0D6
:101D30001198012449A3012801D11098C1430698A4
:101D4000119A84600360C26041600BB0F0BD4042F4
:101D5000E4E70446210500203F4A001C514103915D
:101D6000029012E0E00707D032463B460199009806
:101D7000FEF732FA0191009032463B461046194672
:101D8000FEF72AFA06460F466410002CEAD10498A2
:101D9000039B0028029A0999089806DAFEF71CFAB4
:101DA000019B009AFEF718FA05E0FEF73BFC019B49
:101DB000009AFEF737FC04460E460022284BFEF739
:101DC000C9FC03D80020C043014607E00022254B90
:101DD00020463146FEF774FBFEF79CFC102409E018
:101DE000002C0ADB0A220023FEF799FA079B303207
:101DF0001A55641E02460A43F2D11122641C079B45
:101E0000121B1C19119B012B03D0012308430ED177
:101E10000AE0084304D0112010900020119077E7C9
:101E20001098151A6D1E0BE01098824202DD0023F7
:101E30006D1C03E0824201DA00236D1E002BEED000
:101E4000069811998260C16030C07EE701FCFFFFF7
:101E5000104D0000000014400000F03F3000000072
:101E60000000F0430000E03FFFB597B006460025B4
:101E700018E2252877D100242746FD49049400E084
:101E80000443761C32780120203A90400842F7D172
:101E900030782A280ED002223078014630390929BC
:101EA00016D804990A235943303940181443761C34
:101EB0000490F1E7189802C804911890002904DAF8
:101EC0000120400304434842049002200443761C4E
:101ED00030782E2814D1042004437078761C2A28E8
:101EE00009D11898761C80C8189009E00A214F4340
:101EF000303FC719761C3078014630390929F5D9A9
:101F000030786C2810D006DC4C281AD068280ED007
:101F10006A2817D104E0742813D07A2812D110E06F
:101F20000120400504430CE00121090501E00321E3
:101F300009050C437178814203D101200005241862
:101F4000761C761C3078119066280BD013DC58284C
:101F50007DD009DC00287BD04528F6D04628F4D077
:101F600047281AD1A5E118E0632835D0642870D03D
:101F7000652812D19DE170286CD008DC6728F1D06B
:101F800069287BD06E280DD06F2806D1BAE073285F
:101F90002ED0752871D0782859D01A9A199990475F
:101FA0006D1C7EE16002400F022809D003280DD08D
:101FB0000428189801680DD00D60001D189070E17C
:101FC0001898EA1701680D604A60F6E718980168EA
:101FD0000D80F2E70D70F0E718986A4601781172EB
:101FE000001D18900020507202A80090012005E00A
:101FF000189802C8189000200091C04361070DD5C1
:10200000002101E00199491C0191B94212DA814293
:10201000F8DB009A515C0029F4D10BE0002101E0CB
:102020000199491C01918142FADB019A0099895C6E
:102030000029F5D1019904981A9B471A2146384680
:10204000199A00F097FA0199401945180BE04FE0F2
:102050002CE113E04EE0009800990078491C0091B3
:102060001A9A199990470198401E0190401CF2D18C
:10207000214638461A9B199A10E137E00A200021C0
:10208000009001916002410F022907D0189A01CAFD
:102090001892C2179446032908D00AE01898C01D68
:1020A000C108C90005C91891944607E000B2C217DB
:1020B0009446042902D140B2C1178C4600226146E1
:1020C000944506DA0A460021404291418C462D2172
:1020D00002E0210504D52B216A461173012103E09A
:1020E000E10701D02021F7E7029155E00A200AE03C
:1020F000102008E0102000900021042004430191EA
:10210000082703E008200021019100906002410FA0
:10211000022907D0189A01CA18920022944603296E
:1021200008D008E01898C01DC108C90005C9189159
:10213000944603E080B2042900D1C0B2002102918C
:10214000210729D51199702906D0009A1021019BE9
:102150004A401A4305D00EE040216A46117301211E
:1021600008E06146014306D030216A461173119997
:10217000517302210291009A0821019B4A401A439F
:102180000AD16146014301D1610705D530216A4674
:10219000117301217F1E02911199582904D035A194
:1021A0000E910DA90D910DE037A1F9E76146019B54
:1021B000009AFEF7B4F80E9B8C469B5C0D9A521E5B
:1021C0000D92137061460143F0D10D9805A9081ACC
:1021D00020300190600703D501200004844300E013
:1021E00001270198874201DD381A00E0002001999B
:1021F00000904118029809180498401A0490E003CE
:1022000006D421461A9B199A049800F0B3F945198F
:10221000002706E003A81A9AC05D199990476D1C23
:102220007F1C02988742F5DBE0030CD521461A9B00
:10223000199A049800F09EF9451904E01A9A302082
:10224000199990476D1C0099481E00900029F5DCF3
:1022500008E00D980D990078491C0D911A9A19996A
:1022600090476D1C0199481E01900029F1DC63E143
:10227000092801003031323334353637383961625C
:102280006364656600000000303132333435363720
:1022900038394142434445460000000000F05AF9F5
:1022A0004519761C3078002800D0E2E528461BB09E
:1022B000F0BD600700D406271898C01DC108C900EA
:1022C00048680A680831C30FDB071891190001D06C
:1022D0009CA108E0210501D59BA104E0E10701D004
:1022E0009AA100E09AA1430011985B08109165281B
:1022F0000CD006DC452809D046281DD0472841D1FE
:1023000041E0662818D067283CD13CE00021112F1D
:1023100001DB112000E0781C0191009008A911A8B0
:10232000FFF7E8FC139905910021119A15927F1C83
:1023300012980197009150E00120C00703900120FE
:10234000019008A9009711A8FFF7D4FC139A1499DB
:1023500005920022119B009212981593059A019202
:10236000002901D0104602E0791C40180190381A6B
:1023700001D5019804E04042401E0090781C019075
:10238000C01B029043E0012F00DA01270021112F2A
:1023900001DD112000E038460191009008A911A844
:1023A000FFF7A8FC13990591119A00211298159234
:1023B0000091019721070CD40599B94201DB0199DD
:1023C00000E00191012904DD159A491E515C302974
:1023D00006D0B84201DA011D05DA0121029115E0AB
:1023E0000199491EEDE7002805DC0099411800918C
:1023F0000199091A03E0019A411C914200DD019103
:102400000099401A401C02900120C0070390200749
:1024100006D402990198814202DB0020C043029059
:1024200000206946C87707AF012103980337C90721
:10243000884224D0022011902B201290039800286B
:102440000CDA404203902D20129007E00A210398F5
:10245000FEF7ACF930317F1E039039701199481E98
:1024600011900029F2DC03980028EFD1791E129810
:1024700008703078202108404530BF1E387006A80B
:10248000C01BC01D039010980078002800D00120C8
:10249000019941180298C01709180398091804985F
:1024A000401A401E0490E00306D421461A9B199A54
:1024B000049800F05FF8451910980078002803D0C0
:1024C0001A9A199990476D1CE00324D521461A9B4E
:1024D000199A049800F04EF845191CE0009800285D
:1024E00007DB00990598884203DD1598405C19992F
:1024F00001E0199930201A9A904700986D1C401CF1
:1025000000900298401E0290002804D11A9A2E20B2
:10251000199990476D1C0199481E01900029DDDC36
:1025200005E038781A9A7F1C199990476D1C039919
:10253000481E03900029F4DC21461A9B199A04983E
:10254000ACE600002D0000002B0000002000000081
:1025500000000000F8B5044600251E461746880412
:1025600004D405E039462020B0476D1C641EF9D51F
:102570002846F8BDFFB50446002581B01E46C803B5
:1025800001D5302700E02027880404D505E038462F
:102590000399B0476D1C641EF9D5284605B0F0BDFF
:1025A00010B5044601E0FFF711FB2078641C0349D5
:1025B0000028F8D10A20FFF709FB10BD1000002009
:1025C000000000000400000008000000001BB7002D
:1025D0000000000000800000006CDC020000000031
:1025E0000096000000000000040000000800000049
:1025F0000C00000001020404001BB7000080000072
:1026000000000000009600000000000000863D0071
:1026100000000000006CDC023826000000000020F2
:1026200010000000D61C000048260000100000200A
:1026300060080000E61C000030000000006CDC02B6
:08264000006CDC020100000047
:0400000500000155A1
:00000001FF
